:060000001CC0E9C00CC1A8
:04000C002CC152C1F0
:0400120044C06AC0BC
:14001A005649525455414C42494359434C452300000000008D
:14002E00000000000000000000230000CFE5D2E0CDBFDEBF0C
:14004200CE51D0400AEA08830024E0E7F0E011E0E437F1073D
:1400560011F00192FBCF0083EAE2F0E0A0E6B0E010E000E033
:14006A000BBFEA33F10721F0C89531960D92F9CF71D1FFCFF7
:14007E00AA9209B988E98AB9AA24A092F200A092F300A09273
:140092007000A0927100A99008952A920A932A933A938A9371
:1400A6009A93EA93FA932FB62A920CB12091F3002F5F2F77D9
:1400BA002093F3002090F200221501F484EF90E0E22FFF27A4
:1400CE00E80FF91F008329902FBEF991E991999189913991D4
:1400E20029910991299018952A923A920A931A938A939A9334
:1400F600EA93FA932FB62A922090700030907100321479F04B
:14010A00009170000F5F0F770093700082E790E0E02FFF27DB
:14011E00E80FF91F20802CB801C0559829902FBEF991E991E2
:1401320099918991199109913990299018952090F2003090A0
:14014600F300321411F40FEF0DC00091F2000F5F0F77009392
:14015A00F20084EF90E0E02FFF27E80FF91F008108954A937D
:14016E005A93409171004F5F4F77209070004215E1F382E726
:1401820090E0E42FFF27E80FF91F008340937100559A599111
:14019600499108952090F2003090F300321419F001E010E069
:1401AA0002C000271127089504D2A02EB12E42E050E0E42F9B
:1401BE00F52FEA0DFB1D0081D2DF415050404030E0E05E0712
:1401D200A4F7F8C12A923A924A925A922FB62A9222B640902C
:1401E600630050906400342C409061005090620042185308D6
:1401FA005092620040926100222433243092640020926300A2
:14020E0022BE29902FBE599049903990299018952A923A92DD
:140222004A925A922FB62A9222B64090630050906400342CB0
:140236004090610050906200420C531C50926200409261000D
:14024A0022243324309264002092630022BE29902FBE599059
:14025E0049903990299018952A928A939A932FB62A92222497
:140272002CBC2DBC8091650090916600019690936600809377
:14028600650029902FBE999189912990189522242EBC2FBC94
:14029A002DBC2CBC87E08EBD89B7806889BF08958AE085BF12
:1402AE0080EC8BBF08952A928A939A932FB62A92222422BE1C
:1402C2008091630090916400019690936400809363002990E2
:1402D6002FBE999189912990189587E083BF222422BE89B76E
:1402EA00826089BF0895222422BE2DBC2CBC332430926200C7
:1402FE002092610030926A002092690030926C0020926B0047
:140312003092640020926300309266002092650020926E003D
:1403260020926F00089506B31127047010700895222422BE5D
:14033A003324309262002092610030926A0020926900309218
:14034E0064002092630020926E0020926F00089560978AE1E2
:1403620090E0EC2FFD2F00E110E0FA93EA939A938A932DD1AD
:14037600222427BA83E088BB2ABA8FEF8BBB24BA85BB0BE0F5
:14038A0079DEA9DF82DF8CDF789410C1CF9B01C0CDDFD1DE51
:14039E00402F55274235E0E05E0709F4EFC04335E0E05E077B
:1403B20009F4DDC083E590E084179507A4F04134E0E05E0760
:1403C60009F475C04234E0E05E0709F4AEC04334E0E05E074F
:1403DA0009F4C2C04434E0E05E0739F0E7C04F3FE0E05E0770
:1403EE0009F4E2C0E1C09BDF0030010789F022B64090630085
:1404020050906400342C4090610050906200420C531C509230
:140416006A004092690010C022B64090630050906400342CAE
:14042A0040906100509062004218530850926A00409269000F
:14043E002090690030906A00232C332427FC309420926E00BA
:140452008091690090916A00907080936F0001E484DE0DE6D5
:1404660010E0A4DE2CB43DB430926C0020926B00232C33244E
:14047A0027FC309420926E0080916B0090916C00907080934B
:14048E006F0002E46CDE0DE610E08CDE03E567DE23B225BA8D
:1404A20005B363DE29B22BBA0BB35FDE03E25DDE81C03BDF17
:1404B600A02EB12E0030010789F022B6409063005090640085
:1404CA00342C4090610050906200420C531C50926A00409270
:1404DE00690010C022B64090630050906400342C40906100F1
:1404F200509062004218530850926A0040926900209069005F
:1405060030906A00232C332427FC309420926E008091690090
:14051A0090916A00907080936F0001E422DE0DE610E042DED8
:14052E0043C02CB43DB430926C0020926B00232C332427FCD1
:14054200309420926E0080916B0090916C00907080936F0036
:1405560002E409DE0DE610E029DE2AC0E9DE03E402DE0DE66F
:14056A0010E022DE23C003E5FCDD23B225BA05B3F8DD29B2CD
:14057E002BBA0BB3F4DD03E2F2DD16C0442755270AC08C2FFF
:140592009D2FE42FF52FE80FF91F0081E6DD4F5F5F4F8C2FE8
:1405A6009D2FE42FF52FE80FF91F2080222069F7EFCE60963A
:1405BA0008955A934A93BA92AA920895A990B990499159915B
:1405CE000895AA93BA93EA93FA930A92AF81B885ED81FE81F2
:1405E2000030010731F0C8950D92319601501040F7CF0990E9
:0C05F600F991E991B991A991249608951A
:00000001FF
